{
  "contractName": "SolnSquareVerifier",
  "abi": [
    {
      "constant": true,
      "inputs": [
        {
          "name": "interfaceId",
          "type": "bytes4"
        }
      ],
      "name": "supportsInterface",
      "outputs": [
        {
          "name": "",
          "type": "bool"
        }
      ],
      "payable": false,
      "stateMutability": "view",
      "type": "function",
      "signature": "0x01ffc9a7"
    },
    {
      "constant": true,
      "inputs": [
        {
          "name": "tokenId",
          "type": "uint256"
        }
      ],
      "name": "getApproved",
      "outputs": [
        {
          "name": "",
          "type": "address"
        }
      ],
      "payable": false,
      "stateMutability": "view",
      "type": "function",
      "signature": "0x081812fc"
    },
    {
      "constant": false,
      "inputs": [
        {
          "name": "to",
          "type": "address"
        },
        {
          "name": "tokenId",
          "type": "uint256"
        }
      ],
      "name": "approve",
      "outputs": [],
      "payable": false,
      "stateMutability": "nonpayable",
      "type": "function",
      "signature": "0x095ea7b3"
    },
    {
      "constant": true,
      "inputs": [],
      "name": "getSymbol",
      "outputs": [
        {
          "name": "",
          "type": "string"
        }
      ],
      "payable": false,
      "stateMutability": "view",
      "type": "function",
      "signature": "0x15070401"
    },
    {
      "constant": false,
      "inputs": [
        {
          "name": "paused",
          "type": "bool"
        }
      ],
      "name": "setPaused",
      "outputs": [],
      "payable": false,
      "stateMutability": "nonpayable",
      "type": "function",
      "signature": "0x16c38b3c"
    },
    {
      "constant": true,
      "inputs": [],
      "name": "getName",
      "outputs": [
        {
          "name": "",
          "type": "string"
        }
      ],
      "payable": false,
      "stateMutability": "view",
      "type": "function",
      "signature": "0x17d7de7c"
    },
    {
      "constant": true,
      "inputs": [],
      "name": "totalSupply",
      "outputs": [
        {
          "name": "",
          "type": "uint256"
        }
      ],
      "payable": false,
      "stateMutability": "view",
      "type": "function",
      "signature": "0x18160ddd"
    },
    {
      "constant": false,
      "inputs": [
        {
          "name": "from",
          "type": "address"
        },
        {
          "name": "to",
          "type": "address"
        },
        {
          "name": "tokenId",
          "type": "uint256"
        }
      ],
      "name": "transferFrom",
      "outputs": [],
      "payable": false,
      "stateMutability": "nonpayable",
      "type": "function",
      "signature": "0x23b872dd"
    },
    {
      "constant": false,
      "inputs": [
        {
          "name": "_myid",
          "type": "bytes32"
        },
        {
          "name": "_result",
          "type": "string"
        }
      ],
      "name": "__callback",
      "outputs": [],
      "payable": false,
      "stateMutability": "nonpayable",
      "type": "function",
      "signature": "0x27dc297e"
    },
    {
      "constant": true,
      "inputs": [
        {
          "name": "owner",
          "type": "address"
        },
        {
          "name": "index",
          "type": "uint256"
        }
      ],
      "name": "tokenOfOwnerByIndex",
      "outputs": [
        {
          "name": "",
          "type": "uint256"
        }
      ],
      "payable": false,
      "stateMutability": "view",
      "type": "function",
      "signature": "0x2f745c59"
    },
    {
      "constant": false,
      "inputs": [
        {
          "name": "_myid",
          "type": "bytes32"
        },
        {
          "name": "_result",
          "type": "string"
        },
        {
          "name": "_proof",
          "type": "bytes"
        }
      ],
      "name": "__callback",
      "outputs": [],
      "payable": false,
      "stateMutability": "nonpayable",
      "type": "function",
      "signature": "0x38bbfa50"
    },
    {
      "constant": false,
      "inputs": [
        {
          "name": "from",
          "type": "address"
        },
        {
          "name": "to",
          "type": "address"
        },
        {
          "name": "tokenId",
          "type": "uint256"
        }
      ],
      "name": "safeTransferFrom",
      "outputs": [],
      "payable": false,
      "stateMutability": "nonpayable",
      "type": "function",
      "signature": "0x42842e0e"
    },
    {
      "constant": true,
      "inputs": [
        {
          "name": "index",
          "type": "uint256"
        }
      ],
      "name": "tokenByIndex",
      "outputs": [
        {
          "name": "",
          "type": "uint256"
        }
      ],
      "payable": false,
      "stateMutability": "view",
      "type": "function",
      "signature": "0x4f6ccce7"
    },
    {
      "constant": false,
      "inputs": [
        {
          "name": "a",
          "type": "uint256[2]"
        },
        {
          "name": "b",
          "type": "uint256[2][2]"
        },
        {
          "name": "c",
          "type": "uint256[2]"
        },
        {
          "name": "input",
          "type": "uint256[2]"
        }
      ],
      "name": "verifyTx",
      "outputs": [
        {
          "name": "r",
          "type": "bool"
        }
      ],
      "payable": false,
      "stateMutability": "nonpayable",
      "type": "function",
      "signature": "0x621e9ec0"
    },
    {
      "constant": true,
      "inputs": [
        {
          "name": "tokenId",
          "type": "uint256"
        }
      ],
      "name": "ownerOf",
      "outputs": [
        {
          "name": "",
          "type": "address"
        }
      ],
      "payable": false,
      "stateMutability": "view",
      "type": "function",
      "signature": "0x6352211e"
    },
    {
      "constant": true,
      "inputs": [
        {
          "name": "owner",
          "type": "address"
        }
      ],
      "name": "balanceOf",
      "outputs": [
        {
          "name": "",
          "type": "uint256"
        }
      ],
      "payable": false,
      "stateMutability": "view",
      "type": "function",
      "signature": "0x70a08231"
    },
    {
      "constant": true,
      "inputs": [],
      "name": "getOwner",
      "outputs": [
        {
          "name": "",
          "type": "address"
        }
      ],
      "payable": false,
      "stateMutability": "view",
      "type": "function",
      "signature": "0x893d20e8"
    },
    {
      "constant": false,
      "inputs": [
        {
          "name": "to",
          "type": "address"
        },
        {
          "name": "approved",
          "type": "bool"
        }
      ],
      "name": "setApprovalForAll",
      "outputs": [],
      "payable": false,
      "stateMutability": "nonpayable",
      "type": "function",
      "signature": "0xa22cb465"
    },
    {
      "constant": false,
      "inputs": [
        {
          "name": "from",
          "type": "address"
        },
        {
          "name": "to",
          "type": "address"
        },
        {
          "name": "tokenId",
          "type": "uint256"
        },
        {
          "name": "_data",
          "type": "bytes"
        }
      ],
      "name": "safeTransferFrom",
      "outputs": [],
      "payable": false,
      "stateMutability": "nonpayable",
      "type": "function",
      "signature": "0xb88d4fde"
    },
    {
      "constant": true,
      "inputs": [],
      "name": "getBaseTokenURI",
      "outputs": [
        {
          "name": "",
          "type": "string"
        }
      ],
      "payable": false,
      "stateMutability": "view",
      "type": "function",
      "signature": "0xbdc32be0"
    },
    {
      "constant": true,
      "inputs": [
        {
          "name": "tokenId",
          "type": "uint256"
        }
      ],
      "name": "tokenURI",
      "outputs": [
        {
          "name": "",
          "type": "string"
        }
      ],
      "payable": false,
      "stateMutability": "view",
      "type": "function",
      "signature": "0xc87b56dd"
    },
    {
      "constant": true,
      "inputs": [
        {
          "name": "owner",
          "type": "address"
        },
        {
          "name": "operator",
          "type": "address"
        }
      ],
      "name": "isApprovedForAll",
      "outputs": [
        {
          "name": "",
          "type": "bool"
        }
      ],
      "payable": false,
      "stateMutability": "view",
      "type": "function",
      "signature": "0xe985e9c5"
    },
    {
      "constant": false,
      "inputs": [
        {
          "name": "newOwner",
          "type": "address"
        }
      ],
      "name": "transferOwnership",
      "outputs": [],
      "payable": false,
      "stateMutability": "nonpayable",
      "type": "function",
      "signature": "0xf2fde38b"
    },
    {
      "anonymous": false,
      "inputs": [
        {
          "indexed": false,
          "name": "key",
          "type": "bytes32"
        },
        {
          "indexed": false,
          "name": "addr",
          "type": "address"
        },
        {
          "indexed": false,
          "name": "tokenId",
          "type": "uint256"
        }
      ],
      "name": "SolutionAdded",
      "type": "event",
      "signature": "0xd54d9ef5d3801dc9b4c79ac9cb0d5ed3b9c83d168bd86bb6e937ca7df70392da"
    },
    {
      "anonymous": false,
      "inputs": [
        {
          "indexed": true,
          "name": "from",
          "type": "address"
        },
        {
          "indexed": true,
          "name": "to",
          "type": "address"
        },
        {
          "indexed": true,
          "name": "tokenId",
          "type": "uint256"
        }
      ],
      "name": "Transfer",
      "type": "event",
      "signature": "0xddf252ad1be2c89b69c2b068fc378daa952ba7f163c4a11628f55a4df523b3ef"
    },
    {
      "anonymous": false,
      "inputs": [
        {
          "indexed": true,
          "name": "owner",
          "type": "address"
        },
        {
          "indexed": true,
          "name": "approved",
          "type": "address"
        },
        {
          "indexed": true,
          "name": "tokenId",
          "type": "uint256"
        }
      ],
      "name": "Approval",
      "type": "event",
      "signature": "0x8c5be1e5ebec7d5bd14f71427d1e84f3dd0314c0f7b2291e5b200ac8c7c3b925"
    },
    {
      "anonymous": false,
      "inputs": [
        {
          "indexed": true,
          "name": "owner",
          "type": "address"
        },
        {
          "indexed": true,
          "name": "operator",
          "type": "address"
        },
        {
          "indexed": false,
          "name": "approved",
          "type": "bool"
        }
      ],
      "name": "ApprovalForAll",
      "type": "event",
      "signature": "0x17307eab39ab6107e8899845ad3d59bd9653f200f220920489ca2b5937696c31"
    },
    {
      "anonymous": false,
      "inputs": [
        {
          "indexed": false,
          "name": "addr",
          "type": "address"
        }
      ],
      "name": "Paused",
      "type": "event",
      "signature": "0x62e78cea01bee320cd4e420270b5ea74000d11b0c9f74754ebdbfc544b05a258"
    },
    {
      "anonymous": false,
      "inputs": [
        {
          "indexed": false,
          "name": "addr",
          "type": "address"
        }
      ],
      "name": "Unpaused",
      "type": "event",
      "signature": "0x5db9ee0a495bf2e6ff9c91a7834c1ba4fdd244a5e8aa4e537bd38aeae4b073aa"
    },
    {
      "anonymous": false,
      "inputs": [
        {
          "indexed": false,
          "name": "oldOwner",
          "type": "address"
        },
        {
          "indexed": false,
          "name": "newOwner",
          "type": "address"
        }
      ],
      "name": "ownershipTransferred",
      "type": "event",
      "signature": "0x7699c77f2404f9b6bbd003861bb4af8ae70b205e19e73d7ec7fe4590db59a6b7"
    },
    {
      "anonymous": false,
      "inputs": [
        {
          "indexed": false,
          "name": "s",
          "type": "string"
        }
      ],
      "name": "Verified",
      "type": "event",
      "signature": "0x3f3cfdb26fb5f9f1786ab4f1a1f9cd4c0b5e726cbdfc26e495261731aad44e39"
    },
    {
      "constant": false,
      "inputs": [
        {
          "name": "addr",
          "type": "address"
        },
        {
          "name": "tokenId",
          "type": "uint256"
        },
        {
          "name": "a",
          "type": "uint256[2]"
        },
        {
          "name": "b",
          "type": "uint256[2][2]"
        },
        {
          "name": "c",
          "type": "uint256[2]"
        },
        {
          "name": "input",
          "type": "uint256[2]"
        }
      ],
      "name": "addSolution",
      "outputs": [],
      "payable": false,
      "stateMutability": "nonpayable",
      "type": "function",
      "signature": "0x3eec14da"
    },
    {
      "constant": false,
      "inputs": [
        {
          "name": "to",
          "type": "address"
        },
        {
          "name": "tokenId",
          "type": "uint256"
        }
      ],
      "name": "mint",
      "outputs": [
        {
          "name": "",
          "type": "bool"
        }
      ],
      "payable": false,
      "stateMutability": "nonpayable",
      "type": "function",
      "signature": "0x40c10f19"
    }
  ],
  "bytecode": "0x60806040526040805190810160405280600881526020017f523220546f6b656e0000000000000000000000000000000000000000000000008152506040805190810160405280600281526020017f5232000000000000000000000000000000000000000000000000000000000000815250606060405190810160405280603f81526020017f68747470733a2f2f73332d75732d776573742d322e616d617a6f6e6177732e6381526020017f6f6d2f756461636974792d626c6f636b636861696e2f63617073746f6e652f00815250336000806101000a81548173ffffffffffffffffffffffffffffffffffffffff021916908373ffffffffffffffffffffffffffffffffffffffff16021790555060008060146101000a81548160ff021916908315150217905550620001646301ffc9a77c0100000000000000000000000000000000000000000000000000000000026200026f640100000000026401000000009004565b620001a16380ac58cd7c0100000000000000000000000000000000000000000000000000000000026200026f640100000000026401000000009004565b620001de63780e9d637c0100000000000000000000000000000000000000000000000000000000026200026f640100000000026401000000009004565b82600f9080519060200190620001f69291906200032d565b5081601090805190602001906200020f9291906200032d565b508060119080519060200190620002289291906200032d565b5062000266635b5e139f7c0100000000000000000000000000000000000000000000000000000000026200026f640100000000026401000000009004565b505050620003dc565b63ffffffff7c010000000000000000000000000000000000000000000000000000000002817bffffffffffffffffffffffffffffffffffffffffffffffffffffffff191614151515620002c157600080fd5b6001806000837bffffffffffffffffffffffffffffffffffffffffffffffffffffffff19167bffffffffffffffffffffffffffffffffffffffffffffffffffffffff1916815260200190815260200160002060006101000a81548160ff02191690831515021790555050565b828054600181600116156101000203166002900490600052602060002090601f016020900481019282601f106200037057805160ff1916838001178555620003a1565b82800160010185558215620003a1579182015b82811115620003a057825182559160200191906001019062000383565b5b509050620003b09190620003b4565b5090565b620003d991905b80821115620003d5576000816000905550600101620003bb565b5090565b90565b6147ad80620003ec6000396000f3fe608060405260043610610149576000357c0100000000000000000000000000000000000000000000000000000000900463ffffffff16806301ffc9a71461014e578063081812fc146101c0578063095ea7b31461023b578063150704011461029657806316c38b3c1461032657806317d7de7c1461036357806318160ddd146103f357806323b872dd1461041e57806327dc297e146104995780632f745c591461056b57806338bbfa50146105da5780633eec14da1461074357806340c10f19146108db57806342842e0e1461094e5780634f6ccce7146109c9578063621e9ec014610a185780636352211e14610b9e57806370a0823114610c19578063893d20e814610c7e578063a22cb46514610cd5578063b88d4fde14610d32578063bdc32be014610e44578063c87b56dd14610ed4578063e985e9c514610f88578063f2fde38b14611011575b600080fd5b34801561015a57600080fd5b506101a66004803603602081101561017157600080fd5b8101908080357bffffffffffffffffffffffffffffffffffffffffffffffffffffffff19169060200190929190505050611062565b604051808215151515815260200191505060405180910390f35b3480156101cc57600080fd5b506101f9600480360360208110156101e357600080fd5b81019080803590602001909291905050506110ca565b604051808273ffffffffffffffffffffffffffffffffffffffff1673ffffffffffffffffffffffffffffffffffffffff16815260200191505060405180910390f35b34801561024757600080fd5b506102946004803603604081101561025e57600080fd5b81019080803573ffffffffffffffffffffffffffffffffffffffff16906020019092919080359060200190929190505050611107565b005b3480156102a257600080fd5b506102ab6113ab565b6040518080602001828103825283818151815260200191508051906020019080838360005b838110156102eb5780820151818401526020810190506102d0565b50505050905090810190601f1680156103185780820380516001836020036101000a031916815260200191505b509250505060405180910390f35b34801561033257600080fd5b506103616004803603602081101561034957600080fd5b8101908080351515906020019092919050505061144d565b005b34801561036f57600080fd5b50610378611621565b6040518080602001828103825283818151815260200191508051906020019080838360005b838110156103b857808201518184015260208101905061039d565b50505050905090810190601f1680156103e55780820380516001836020036101000a031916815260200191505b509250505060405180910390f35b3480156103ff57600080fd5b506104086116c3565b6040518082815260200191505060405180910390f35b34801561042a57600080fd5b506104976004803603606081101561044157600080fd5b81019080803573ffffffffffffffffffffffffffffffffffffffff169060200190929190803573ffffffffffffffffffffffffffffffffffffffff169060200190929190803590602001909291905050506116d0565b005b3480156104a557600080fd5b50610569600480360360408110156104bc57600080fd5b8101908080359060200190929190803590602001906401000000008111156104e357600080fd5b8201836020820111156104f557600080fd5b8035906020019184600183028401116401000000008311171561051757600080fd5b91908080601f016020809104026020016040519081016040528093929190818152602001838380828437600081840152601f19601f8201169050808301925050505050505091929192905050506116f5565b005b34801561057757600080fd5b506105c46004803603604081101561058e57600080fd5b81019080803573ffffffffffffffffffffffffffffffffffffffff16906020019092919080359060200190929190505050611738565b6040518082815260200191505060405180910390f35b3480156105e657600080fd5b50610741600480360360608110156105fd57600080fd5b81019080803590602001909291908035906020019064010000000081111561062457600080fd5b82018360208201111561063657600080fd5b8035906020019184600183028401116401000000008311171561065857600080fd5b91908080601f016020809104026020016040519081016040528093929190818152602001838380828437600081840152601f19601f820116905080830192505050505050509192919290803590602001906401000000008111156106bb57600080fd5b8201836020820111156106cd57600080fd5b803590602001918460018302840111640100000000831117156106ef57600080fd5b91908080601f016020809104026020016040519081016040528093929190818152602001838380828437600081840152601f19601f8201169050808301925050505050505091929192905050506117af565b005b34801561074f57600080fd5b506108d9600480360361018081101561076757600080fd5b81019080803573ffffffffffffffffffffffffffffffffffffffff1690602001909291908035906020019092919080604001906002806020026040519081016040528092919082600260200280828437600081840152601f19601f82011690508083019250505050505091929192908060800190600280602002604051908101604052809291906000905b82821015610846578382604002016002806020026040519081016040528092919082600260200280828437600081840152601f19601f820116905080830192505050505050815260200190600101906107f2565b50505050919291929080604001906002806020026040519081016040528092919082600260200280828437600081840152601f19601f820116905080830192505050505050919291929080604001906002806020026040519081016040528092919082600260200280828437600081840152601f19601f82011690508083019250505050505091929192905050506117b4565b005b3480156108e757600080fd5b50610934600480360360408110156108fe57600080fd5b81019080803573ffffffffffffffffffffffffffffffffffffffff16906020019092919080359060200190929190505050611b56565b604051808215151515815260200191505060405180910390f35b34801561095a57600080fd5b506109c76004803603606081101561097157600080fd5b81019080803573ffffffffffffffffffffffffffffffffffffffff169060200190929190803573ffffffffffffffffffffffffffffffffffffffff16906020019092919080359060200190929190505050611c02565b005b3480156109d557600080fd5b50610a02600480360360208110156109ec57600080fd5b8101908080359060200190929190505050611c23565b6040518082815260200191505060405180910390f35b348015610a2457600080fd5b50610b846004803603610140811015610a3c57600080fd5b8101908080604001906002806020026040519081016040528092919082600260200280828437600081840152601f19601f82011690508083019250505050505091929192908060800190600280602002604051908101604052809291906000905b82821015610af1578382604002016002806020026040519081016040528092919082600260200280828437600081840152601f19601f82011690508083019250505050505081526020019060010190610a9d565b50505050919291929080604001906002806020026040519081016040528092919082600260200280828437600081840152601f19601f820116905080830192505050505050919291929080604001906002806020026040519081016040528092919082600260200280828437600081840152601f19601f8201169050808301925050505050509192919290505050611c5b565b604051808215151515815260200191505060405180910390f35b348015610baa57600080fd5b50610bd760048036036020811015610bc157600080fd5b8101908080359060200190929190505050611f03565b604051808273ffffffffffffffffffffffffffffffffffffffff1673ffffffffffffffffffffffffffffffffffffffff16815260200191505060405180910390f35b348015610c2557600080fd5b50610c6860048036036020811015610c3c57600080fd5b81019080803573ffffffffffffffffffffffffffffffffffffffff169060200190929190505050611f40565b6040518082815260200191505060405180910390f35b348015610c8a57600080fd5b50610c93611f90565b604051808273ffffffffffffffffffffffffffffffffffffffff1673ffffffffffffffffffffffffffffffffffffffff16815260200191505060405180910390f35b348015610ce157600080fd5b50610d3060048036036040811015610cf857600080fd5b81019080803573ffffffffffffffffffffffffffffffffffffffff169060200190929190803515159060200190929190505050611fb9565b005b348015610d3e57600080fd5b50610e4260048036036080811015610d5557600080fd5b81019080803573ffffffffffffffffffffffffffffffffffffffff169060200190929190803573ffffffffffffffffffffffffffffffffffffffff1690602001909291908035906020019092919080359060200190640100000000811115610dbc57600080fd5b820183602082011115610dce57600080fd5b80359060200191846001830284011164010000000083111715610df057600080fd5b91908080601f016020809104026020016040519081016040528093929190818152602001838380828437600081840152601f19601f8201169050808301925050505050505091929192905050506120f5565b005b348015610e5057600080fd5b50610e5961211d565b6040518080602001828103825283818151815260200191508051906020019080838360005b83811015610e99578082015181840152602081019050610e7e565b50505050905090810190601f168015610ec65780820380516001836020036101000a031916815260200191505b509250505060405180910390f35b348015610ee057600080fd5b50610f0d60048036036020811015610ef757600080fd5b81019080803590602001909291905050506121bf565b6040518080602001828103825283818151815260200191508051906020019080838360005b83811015610f4d578082015181840152602081019050610f32565b50505050905090810190601f168015610f7a5780820380516001836020036101000a031916815260200191505b509250505060405180910390f35b348015610f9457600080fd5b50610ff760048036036040811015610fab57600080fd5b81019080803573ffffffffffffffffffffffffffffffffffffffff169060200190929190803573ffffffffffffffffffffffffffffffffffffffff169060200190929190505050612288565b604051808215151515815260200191505060405180910390f35b34801561101d57600080fd5b506110606004803603602081101561103457600080fd5b81019080803573ffffffffffffffffffffffffffffffffffffffff16906020019092919050505061231c565b005b600060016000837bffffffffffffffffffffffffffffffffffffffffffffffffffffffff19167bffffffffffffffffffffffffffffffffffffffffffffffffffffffff1916815260200190815260200160002060009054906101000a900460ff169050919050565b60006003600083815260200190815260200160002060009054906101000a900473ffffffffffffffffffffffffffffffffffffffff169050919050565b6002600082815260200190815260200160002060009054906101000a900473ffffffffffffffffffffffffffffffffffffffff1673ffffffffffffffffffffffffffffffffffffffff168273ffffffffffffffffffffffffffffffffffffffff1614151515611204576040517f08c379a00000000000000000000000000000000000000000000000000000000081526004018080602001828103825260248152602001807f546f6b656e20697320616c7265616479206f776e65642062792072656365697081526020017f69656e740000000000000000000000000000000000000000000000000000000081525060400191505060405180910390fd5b61122f6000809054906101000a900473ffffffffffffffffffffffffffffffffffffffff1633612288565b8061128657506000809054906101000a900473ffffffffffffffffffffffffffffffffffffffff1673ffffffffffffffffffffffffffffffffffffffff163373ffffffffffffffffffffffffffffffffffffffff16145b15156112fa576040517f08c379a00000000000000000000000000000000000000000000000000000000081526004018080602001828103825260168152602001807f4e6f7420616c6c6f77656420746f20617070726f76650000000000000000000081525060200191505060405180910390fd5b816003600083815260200190815260200160002060006101000a81548173ffffffffffffffffffffffffffffffffffffffff021916908373ffffffffffffffffffffffffffffffffffffffff160217905550803373ffffffffffffffffffffffffffffffffffffffff168373ffffffffffffffffffffffffffffffffffffffff167f8c5be1e5ebec7d5bd14f71427d1e84f3dd0314c0f7b2291e5b200ac8c7c3b92560405160405180910390a45050565b606060108054600181600116156101000203166002900480601f0160208091040260200160405190810160405280929190818152602001828054600181600116156101000203166002900480156114435780601f1061141857610100808354040283529160200191611443565b820191906000526020600020905b81548152906001019060200180831161142657829003601f168201915b5050505050905090565b6000809054906101000a900473ffffffffffffffffffffffffffffffffffffffff1673ffffffffffffffffffffffffffffffffffffffff163373ffffffffffffffffffffffffffffffffffffffff16141515611511576040517f08c379a000000000000000000000000000000000000000000000000000000000815260040180806020018281038252601b8152602001807f43616e206f6e6c792062652063616c6c6564206279206f776e6572000000000081525060200191505060405180910390fd5b80600060146101000a81548160ff021916908315150217905550600060149054906101000a900460ff16156115a4577f62e78cea01bee320cd4e420270b5ea74000d11b0c9f74754ebdbfc544b05a25833604051808273ffffffffffffffffffffffffffffffffffffffff1673ffffffffffffffffffffffffffffffffffffffff16815260200191505060405180910390a15b600060149054906101000a900460ff16151561161e577f5db9ee0a495bf2e6ff9c91a7834c1ba4fdd244a5e8aa4e537bd38aeae4b073aa33604051808273ffffffffffffffffffffffffffffffffffffffff1673ffffffffffffffffffffffffffffffffffffffff16815260200191505060405180910390a15b50565b6060600f8054600181600116156101000203166002900480601f0160208091040260200160405190810160405280929190818152602001828054600181600116156101000203166002900480156116b95780601f1061168e576101008083540402835291602001916116b9565b820191906000526020600020905b81548152906001019060200180831161169c57829003601f168201915b5050505050905090565b6000600880549050905090565b6116da3382612586565b15156116e557600080fd5b6116f083838361261b565b505050565b611734828260006040519080825280601f01601f19166020018201604052801561172e5781602001600182028038833980820191505090505b506117af565b5050565b600061174383611f40565b8210151561175057600080fd5b600660008473ffffffffffffffffffffffffffffffffffffffff1673ffffffffffffffffffffffffffffffffffffffff1681526020019081526020016000208281548110151561179c57fe5b9060005260206000200154905092915050565b505050565b6000848484846040516020018085600260200280838360005b838110156117e85780820151818401526020810190506117cd565b505050509050018460026000925b8184101561183c5782846020020151600260200280838360005b8381101561182b578082015181840152602081019050611810565b5050505090500192600101926117f6565b9250505083600260200280838360005b8381101561186757808201518184015260208101905061184c565b5050505090500182600260200280838360005b8381101561189557808201518184015260208101905061187a565b505050509050019450505050506040516020818303038152906040528051906020012090506014600082815260200190815260200160002060009054906101000a900460ff16151515611950576040517f08c379a000000000000000000000000000000000000000000000000000000000815260040180806020018281038252601f8152602001807f5468697320736f6c7574696f6e2077617320616c72656164792075736564210081525060200191505060405180910390fd5b600061195e86868686611c5b565b90508015156119d5576040517f08c379a00000000000000000000000000000000000000000000000000000000081526004018080602001828103825260208152602001807f5468652070726f76696465642070726f6f66206973206e6f742076616c69642181525060200191505060405180910390fd5b6119dd614508565b6080604051908101604052808481526020018a73ffffffffffffffffffffffffffffffffffffffff16815260200189815260200160011515815250905080601360008a81526020019081526020016000206000820151816000015560208201518160010160006101000a81548173ffffffffffffffffffffffffffffffffffffffff021916908373ffffffffffffffffffffffffffffffffffffffff1602179055506040820151816002015560608201518160030160006101000a81548160ff02191690831515021790555090505060016014600085815260200190815260200160002060006101000a81548160ff0219169083151502179055507fd54d9ef5d3801dc9b4c79ac9cb0d5ed3b9c83d168bd86bb6e937ca7df70392da838a8a604051808481526020018373ffffffffffffffffffffffffffffffffffffffff1673ffffffffffffffffffffffffffffffffffffffff168152602001828152602001935050505060405180910390a1505050505050505050565b60006013600083815260200190815260200160002060030160009054906101000a900460ff161515611bf0576040517f08c379a000000000000000000000000000000000000000000000000000000000815260040180806020018281038252601d8152602001807f736f6c7574696f6e20686173206265656e2075736564206265666f726500000081525060200191505060405180910390fd5b611bfa838361263f565b905092915050565b611c1e83838360206040519081016040528060008152506120f5565b505050565b6000611c2d6116c3565b82101515611c3a57600080fd5b600882815481101515611c4957fe5b90600052602060002001549050919050565b6000611c6561454c565b6040805190810160405280876000600281101515611c7f57fe5b60200201518152602001876001600281101515611c9857fe5b6020020151815250816000018190525060408051908101604052806040805190810160405280886000600281101515611ccd57fe5b60200201516000600281101515611ce057fe5b60200201518152602001886000600281101515611cf957fe5b60200201516001600281101515611d0c57fe5b602002015181525081526020016040805190810160405280886001600281101515611d3357fe5b60200201516000600281101515611d4657fe5b60200201518152602001886001600281101515611d5f57fe5b60200201516001600281101515611d7257fe5b602002015181525081525081602001819052506040805190810160405280856000600281101515611d9f57fe5b60200201518152602001856001600281101515611db857fe5b6020020151815250816040018190525060606002604051908082528060200260200182016040528015611dfa5781602001602082028038833980820191505090505b50905060008090505b6002811015611e48578481600281101515611e1a57fe5b60200201518282815181101515611e2d57fe5b90602001906020020181815250508080600101915050611e03565b506000611e558284612722565b1415611ef4577f3f3cfdb26fb5f9f1786ab4f1a1f9cd4c0b5e726cbdfc26e495261731aad44e396040518080602001828103825260228152602001807f5472616e73616374696f6e207375636365737366756c6c79207665726966696581526020017f642e00000000000000000000000000000000000000000000000000000000000081525060400191505060405180910390a1600192505050611efb565b6000925050505b949350505050565b60006002600083815260200190815260200160002060009054906101000a900473ffffffffffffffffffffffffffffffffffffffff169050919050565b6000611f89600460008473ffffffffffffffffffffffffffffffffffffffff1673ffffffffffffffffffffffffffffffffffffffff1681526020019081526020016000206128aa565b9050919050565b60008060009054906101000a900473ffffffffffffffffffffffffffffffffffffffff16905090565b3373ffffffffffffffffffffffffffffffffffffffff168273ffffffffffffffffffffffffffffffffffffffff1614151515611ff457600080fd5b80600560003373ffffffffffffffffffffffffffffffffffffffff1673ffffffffffffffffffffffffffffffffffffffff16815260200190815260200160002060008473ffffffffffffffffffffffffffffffffffffffff1673ffffffffffffffffffffffffffffffffffffffff16815260200190815260200160002060006101000a81548160ff0219169083151502179055508173ffffffffffffffffffffffffffffffffffffffff163373ffffffffffffffffffffffffffffffffffffffff167f17307eab39ab6107e8899845ad3d59bd9653f200f220920489ca2b5937696c3183604051808215151515815260200191505060405180910390a35050565b6121008484846116d0565b61210c848484846128b8565b151561211757600080fd5b50505050565b606060118054600181600116156101000203166002900480601f0160208091040260200160405190810160405280929190818152602001828054600181600116156101000203166002900480156121b55780601f1061218a576101008083540402835291602001916121b5565b820191906000526020600020905b81548152906001019060200180831161219857829003601f168201915b5050505050905090565b60606121ca82612adb565b15156121d557600080fd5b601260008381526020019081526020016000208054600181600116156101000203166002900480601f01602080910402602001604051908101604052809291908181526020018280546001816001161561010002031660029004801561227c5780601f106122515761010080835404028352916020019161227c565b820191906000526020600020905b81548152906001019060200180831161225f57829003601f168201915b50505050509050919050565b6000600560008473ffffffffffffffffffffffffffffffffffffffff1673ffffffffffffffffffffffffffffffffffffffff16815260200190815260200160002060008373ffffffffffffffffffffffffffffffffffffffff1673ffffffffffffffffffffffffffffffffffffffff16815260200190815260200160002060009054906101000a900460ff16905092915050565b6000809054906101000a900473ffffffffffffffffffffffffffffffffffffffff1673ffffffffffffffffffffffffffffffffffffffff163373ffffffffffffffffffffffffffffffffffffffff161415156123e0576040517f08c379a000000000000000000000000000000000000000000000000000000000815260040180806020018281038252601b8152602001807f43616e206f6e6c792062652063616c6c6564206279206f776e6572000000000081525060200191505060405180910390fd5b600073ffffffffffffffffffffffffffffffffffffffff168173ffffffffffffffffffffffffffffffffffffffff1614151515612485576040517f08c379a000000000000000000000000000000000000000000000000000000000815260040180806020018281038252600f8152602001807f496e76616c69642041646472657373000000000000000000000000000000000081525060200191505060405180910390fd5b60008060009054906101000a900473ffffffffffffffffffffffffffffffffffffffff169050816000806101000a81548173ffffffffffffffffffffffffffffffffffffffff021916908373ffffffffffffffffffffffffffffffffffffffff1602179055507f7699c77f2404f9b6bbd003861bb4af8ae70b205e19e73d7ec7fe4590db59a6b78183604051808373ffffffffffffffffffffffffffffffffffffffff1673ffffffffffffffffffffffffffffffffffffffff1681526020018273ffffffffffffffffffffffffffffffffffffffff1673ffffffffffffffffffffffffffffffffffffffff1681526020019250505060405180910390a15050565b60008061259283611f03565b90508073ffffffffffffffffffffffffffffffffffffffff168473ffffffffffffffffffffffffffffffffffffffff16148061260157508373ffffffffffffffffffffffffffffffffffffffff166125e9846110ca565b73ffffffffffffffffffffffffffffffffffffffff16145b8061261257506126118185612288565b5b91505092915050565b612626838383612b4d565b6126308382612e70565b61263a8282613014565b505050565b60008060009054906101000a900473ffffffffffffffffffffffffffffffffffffffff1673ffffffffffffffffffffffffffffffffffffffff163373ffffffffffffffffffffffffffffffffffffffff16141515612705576040517f08c379a000000000000000000000000000000000000000000000000000000000815260040180806020018281038252601b8152602001807f43616e206f6e6c792062652063616c6c6564206279206f776e6572000000000081525060200191505060405180910390fd5b61270f83836130db565b612718826130fc565b6001905092915050565b6000807f30644e72e131a029b85045b68181585d2833e84879b9709143e1f593f00000019050612750614581565b61275861324f565b9050806080015151600186510114151561277157600080fd5b6127796145ca565b6040805190810160405280600081526020016000815250905060008090505b865181101561281d578387828151811015156127b057fe5b906020019060200201511015156127c657600080fd5b61280e826128098560800151600185018151811015156127e257fe5b906020019060200201518a858151811015156127fa57fe5b906020019060200201516136a8565b613744565b91508080600101915050612798565b50612844818360800151600081518110151561283557fe5b90602001906020020151613744565b905061288a8560000151866020015161285c84613801565b856040015161286e8a60400151613801565b87606001516128808960000151613801565b896020015161389d565b151561289c57600193505050506128a4565b600093505050505b92915050565b600081600001549050919050565b60006128d98473ffffffffffffffffffffffffffffffffffffffff16613a21565b15156128e85760019050612ad3565b60008473ffffffffffffffffffffffffffffffffffffffff1663150b7a02338887876040518563ffffffff167c0100000000000000000000000000000000000000000000000000000000028152600401808573ffffffffffffffffffffffffffffffffffffffff1673ffffffffffffffffffffffffffffffffffffffff1681526020018473ffffffffffffffffffffffffffffffffffffffff1673ffffffffffffffffffffffffffffffffffffffff16815260200183815260200180602001828103825283818151815260200191508051906020019080838360005b838110156129df5780820151818401526020810190506129c4565b50505050905090810190601f168015612a0c5780820380516001836020036101000a031916815260200191505b5095505050505050602060405180830381600087803b158015612a2e57600080fd5b505af1158015612a42573d6000803e3d6000fd5b505050506040513d6020811015612a5857600080fd5b8101908080519060200190929190505050905063150b7a027c0100000000000000000000000000000000000000000000000000000000027bffffffffffffffffffffffffffffffffffffffffffffffffffffffff1916817bffffffffffffffffffffffffffffffffffffffffffffffffffffffff1916149150505b949350505050565b6000806002600084815260200190815260200160002060009054906101000a900473ffffffffffffffffffffffffffffffffffffffff169050600073ffffffffffffffffffffffffffffffffffffffff168173ffffffffffffffffffffffffffffffffffffffff161415915050919050565b6002600082815260200190815260200160002060009054906101000a900473ffffffffffffffffffffffffffffffffffffffff1673ffffffffffffffffffffffffffffffffffffffff168373ffffffffffffffffffffffffffffffffffffffff16141515612c23576040517f08c379a000000000000000000000000000000000000000000000000000000000815260040180806020018281038252600f8152602001807f496e636f7272656374206f776e6572000000000000000000000000000000000081525060200191505060405180910390fd5b612c428273ffffffffffffffffffffffffffffffffffffffff16613a21565b151515612cdd576040517f08c379a00000000000000000000000000000000000000000000000000000000081526004018080602001828103825260248152602001807f4e6f7420616c6c6f77656420746f207472616e7366657220746f20636f6e747281526020017f6163742e0000000000000000000000000000000000000000000000000000000081525060400191505060405180910390fd5b60006003600083815260200190815260200160002060006101000a81548173ffffffffffffffffffffffffffffffffffffffff021916908373ffffffffffffffffffffffffffffffffffffffff160217905550816002600083815260200190815260200160002060006101000a81548173ffffffffffffffffffffffffffffffffffffffff021916908373ffffffffffffffffffffffffffffffffffffffff160217905550612dc9600460008573ffffffffffffffffffffffffffffffffffffffff1673ffffffffffffffffffffffffffffffffffffffff168152602001908152602001600020613a34565b612e10600460008473ffffffffffffffffffffffffffffffffffffffff1673ffffffffffffffffffffffffffffffffffffffff168152602001908152602001600020613a57565b808273ffffffffffffffffffffffffffffffffffffffff168473ffffffffffffffffffffffffffffffffffffffff167fddf252ad1be2c89b69c2b068fc378daa952ba7f163c4a11628f55a4df523b3ef60405160405180910390a4505050565b6000612ec86001600660008673ffffffffffffffffffffffffffffffffffffffff1673ffffffffffffffffffffffffffffffffffffffff16815260200190815260200160002080549050613a6d90919063ffffffff16565b90506000600760008481526020019081526020016000205490508181141515612fbb576000600660008673ffffffffffffffffffffffffffffffffffffffff1673ffffffffffffffffffffffffffffffffffffffff16815260200190815260200160002083815481101515612f3957fe5b9060005260206000200154905080600660008773ffffffffffffffffffffffffffffffffffffffff1673ffffffffffffffffffffffffffffffffffffffff16815260200190815260200160002083815481101515612f9357fe5b9060005260206000200181905550816007600083815260200190815260200160002081905550505b600660008573ffffffffffffffffffffffffffffffffffffffff1673ffffffffffffffffffffffffffffffffffffffff16815260200190815260200160002080548091906001900361300d91906145e4565b5050505050565b600660008373ffffffffffffffffffffffffffffffffffffffff1673ffffffffffffffffffffffffffffffffffffffff168152602001908152602001600020805490506007600083815260200190815260200160002081905550600660008373ffffffffffffffffffffffffffffffffffffffff1673ffffffffffffffffffffffffffffffffffffffff1681526020019081526020016000208190806001815401808255809150509060018203906000526020600020016000909192909190915055505050565b6130e58282613af8565b6130ef8282613014565b6130f881613c6e565b5050565b61310581612adb565b1515613179576040517f08c379a00000000000000000000000000000000000000000000000000000000081526004018080602001828103825260148152602001807f546f6b656e20646f6573206e6f7420657869737400000000000000000000000081525060200191505060405180910390fd5b61322560118054600181600116156101000203166002900480601f0160208091040260200160405190810160405280929190818152602001828054600181600116156101000203166002900480156132125780601f106131e757610100808354040283529160200191613212565b820191906000526020600020905b8154815290600101906020018083116131f557829003601f168201915b505050505061322083613cba565b613e13565b60126000838152602001908152602001600020908051906020019061324b929190614610565b5050565b613257614581565b60408051908101604052807f0dc16e2d11ae2d8791a9757061c8729f470de6160f54c79ca55ca46cc65a8a9a81526020017f0a37bcd09e2c9f7f4cfa67544aed2443b9adf967b5faaa27a0253ae0f54922c08152508160000181905250604080519081016040528060408051908101604052807e48ea9e767016bcd6b3ccd444a9d2020ed05a5c1cb4a06fcf356e76c6bd946981526020017f2ac52870ab4c7916655d5025005726947a905e51898fb84fecab0b45ccd56e17815250815260200160408051908101604052807f030b7ea5f2d524cfebb13323c692294fc42b5b93afac5b0acdaa03c7be616dc081526020017f1bf98cc6fc18c36274aebcd2e1374e312ebc490b3f5fcf461517057a246433148152508152508160200181905250604080519081016040528060408051908101604052807f081373c4e8b29ff4cf59dd750ef55ee343ca0ea7d0f3215f78cc25000748598f81526020017f2d5b4f065a9a1b91ae74aa0ae965a4f8b3254de2e3dc1906ad58a3850fde9f5f815250815260200160408051908101604052807f26cfe6333a5c711c659050c7675d67d65192d151f631328149eb3ea742f4990981526020017f2ce4d03296c2d54b9820b35992abf235ad21c54e3825dd55353c299dfc62ae828152508152508160400181905250604080519081016040528060408051908101604052807f2e26202b97bb9cb28e4e439dee6a884b56d326a5039e8cf1b57632a5a931055a81526020017f1381eefd63dedbb7dbedb19e32c68961bd5723f4f632eb782fe5806633d937d8815250815260200160408051908101604052807f28eb92b88305efae6b56165bc2051bbe442460bc643d6ac3a19f7aa653aec9d781526020017f1dd9de0cf2f74609bc76464d54f40d60881c619daf4a73ac09ce112d512df1bd8152508152508160600181905250600360405190808252806020026020018201604052801561353d57816020015b61352a614690565b8152602001906001900390816135225790505b50816080018190525060408051908101604052807f24feb4ab62b7c16d9be81598841ff8fea3e9447a48cfb38faac1613f0ee6802b81526020017f1e40fde1c2d4d50ba4aa097029a3d443f74830baa278b4b20a9418a194d683dc815250816080015160008151811015156135ae57fe5b9060200190602002018190525060408051908101604052807f2acd21f0b0c449677c2bd8fb2208bb54c6c15895c031528b855c6829daf2dd3d81526020017f02d7a373df9ccefc57f3c11d9ffca6ddb21da226a5bc57b1afc32b412a5443478152508160800151600181518110151561362357fe5b9060200190602002018190525060408051908101604052807f076beb3783cbae26a31dac70ea7ebbf01946489d71c14ba82bc9288b01bc5cd381526020017f16d2bf5813f21bed5b67b91c46aa376e6a3ce11a14f10a718f15717a7faf00158152508160800151600281518110151561369857fe5b9060200190602002018190525090565b6136b06145ca565b6136b86146aa565b83600001518160006003811015156136cc57fe5b60200201818152505083602001518160016003811015156136e957fe5b6020020181815250508281600260038110151561370257fe5b6020020181815250506000606083608084600060076107d05a03f19050806000811461372d5761372f565bfe5b5080151561373c57600080fd5b505092915050565b61374c6145ca565b6137546146cd565b836000015181600060048110151561376857fe5b602002018181525050836020015181600160048110151561378557fe5b60200201818152505082600001518160026004811015156137a257fe5b60200201818152505082602001518160036004811015156137bf57fe5b602002018181525050600060608360c084600060066107d05a03f1905080600081146137ea576137ec565bfe5b508015156137f957600080fd5b505092915050565b6138096145ca565b60007f30644e72e131a029b85045b68181585d97816a916871ca8d3c208c16d87cfd47905060008360000151148015613846575060008360200151145b1561386a576040805190810160405280600081526020016000815250915050613898565b60408051908101604052808460000151815260200182856020015181151561388e57fe5b0683038152509150505b919050565b6000606060046040519080825280602002602001820160405280156138dc57816020015b6138c9614690565b8152602001906001900390816138c15790505b5090506060600460405190808252806020026020018201604052801561391c57816020015b6139096146f0565b8152602001906001900390816139015790505b5090508a82600081518110151561392f57fe5b906020019060200201819052508882600181518110151561394c57fe5b906020019060200201819052508682600281518110151561396957fe5b906020019060200201819052508482600381518110151561398657fe5b90602001906020020181905250898160008151811015156139a357fe5b90602001906020020181905250878160018151811015156139c057fe5b90602001906020020181905250858160028151811015156139dd57fe5b90602001906020020181905250838160038151811015156139fa57fe5b90602001906020020181905250613a118282613e5a565b9250505098975050505050505050565b600080823b905060008111915050919050565b613a4c60018260000154613a6d90919063ffffffff16565b816000018190555050565b6001816000016000828254019250508190555050565b6000828211151515613ae7576040517f08c379a000000000000000000000000000000000000000000000000000000000815260040180806020018281038252601e8152602001807f536166654d6174683a207375627472616374696f6e206f766572666c6f77000081525060200191505060405180910390fd5b600082840390508091505092915050565b613b0181612adb565b151515613b76576040517f08c379a00000000000000000000000000000000000000000000000000000000081526004018080602001828103825260138152602001807f546f6b656e20616c72656164792065786973740000000000000000000000000081525060200191505060405180910390fd5b816002600083815260200190815260200160002060006101000a81548173ffffffffffffffffffffffffffffffffffffffff021916908373ffffffffffffffffffffffffffffffffffffffff160217905550613c0f600460008473ffffffffffffffffffffffffffffffffffffffff1673ffffffffffffffffffffffffffffffffffffffff168152602001908152602001600020613a57565b808273ffffffffffffffffffffffffffffffffffffffff163373ffffffffffffffffffffffffffffffffffffffff167fddf252ad1be2c89b69c2b068fc378daa952ba7f163c4a11628f55a4df523b3ef60405160405180910390a45050565b6008805490506009600083815260200190815260200160002081905550600881908060018154018082558091505090600182039060005260206000200160009091929091909150555050565b60606000821415613d02576040805190810160405280600181526020017f30000000000000000000000000000000000000000000000000000000000000008152509050613e0e565b600082905060005b600082141515613d30578080600101915050600a82811515613d2857fe5b049150613d0a565b6060816040519080825280601f01601f191660200182016040528015613d655781602001600182028038833980820191505090505b50905060006001830390505b600086141515613e0657600a86811515613d8757fe5b066030017f010000000000000000000000000000000000000000000000000000000000000002828280600190039350815181101515613dc257fe5b9060200101907effffffffffffffffffffffffffffffffffffffffffffffffffffffffffffff1916908160001a905350600a86811515613dfe57fe5b049550613d71565b819450505050505b919050565b6060613e5283836020604051908101604052806000815250602060405190810160405280600081525060206040519081016040528060008152506140ed565b905092915050565b600081518351141515613e6c57600080fd5b6000835190506000600682029050606081604051908082528060200260200182016040528015613eab5781602001602082028038833980820191505090505b50905060008090505b83811015614089578681815181101515613eca57fe5b90602001906020020151600001518260006006840201815181101515613eec57fe5b90602001906020020181815250508681815181101515613f0857fe5b90602001906020020151602001518260016006840201815181101515613f2a57fe5b90602001906020020181815250508581815181101515613f4657fe5b90602001906020020151600001516000600281101515613f6257fe5b60200201518260026006840201815181101515613f7b57fe5b90602001906020020181815250508581815181101515613f9757fe5b90602001906020020151600001516001600281101515613fb357fe5b60200201518260036006840201815181101515613fcc57fe5b90602001906020020181815250508581815181101515613fe857fe5b9060200190602002015160200151600060028110151561400457fe5b6020020151826004600684020181518110151561401d57fe5b9060200190602002018181525050858181518110151561403957fe5b9060200190602002015160200151600160028110151561405557fe5b6020020151826005600684020181518110151561406e57fe5b90602001906020020181815250508080600101915050613eb4565b50614092614717565b60006020826020860260208601600060086107d05a03f1905080600081146140b9576140bb565bfe5b508015156140c857600080fd5b60008260006001811015156140d957fe5b602002015114159550505050505092915050565b6060808690506060869050606086905060608690506060869050606081518351855187518951010101016040519080825280601f01601f1916602001820160405280156141495781602001600182028038833980820191505090505b509050606081905060008090506000809050600090505b885181101561421357888181518110151561417757fe5b9060200101517f010000000000000000000000000000000000000000000000000000000000000090047f01000000000000000000000000000000000000000000000000000000000000000283838060010194508151811015156141d657fe5b9060200101907effffffffffffffffffffffffffffffffffffffffffffffffffffffffffffff1916908160001a9053508080600101915050614160565b600090505b87518110156142cb57878181518110151561422f57fe5b9060200101517f010000000000000000000000000000000000000000000000000000000000000090047f010000000000000000000000000000000000000000000000000000000000000002838380600101945081518110151561428e57fe5b9060200101907effffffffffffffffffffffffffffffffffffffffffffffffffffffffffffff1916908160001a9053508080600101915050614218565b600090505b86518110156143835786818151811015156142e757fe5b9060200101517f010000000000000000000000000000000000000000000000000000000000000090047f010000000000000000000000000000000000000000000000000000000000000002838380600101945081518110151561434657fe5b9060200101907effffffffffffffffffffffffffffffffffffffffffffffffffffffffffffff1916908160001a90535080806001019150506142d0565b600090505b855181101561443b57858181518110151561439f57fe5b9060200101517f010000000000000000000000000000000000000000000000000000000000000090047f01000000000000000000000000000000000000000000000000000000000000000283838060010194508151811015156143fe57fe5b9060200101907effffffffffffffffffffffffffffffffffffffffffffffffffffffffffffff1916908160001a9053508080600101915050614388565b600090505b84518110156144f357848181518110151561445757fe5b9060200101517f010000000000000000000000000000000000000000000000000000000000000090047f01000000000000000000000000000000000000000000000000000000000000000283838060010194508151811015156144b657fe5b9060200101907effffffffffffffffffffffffffffffffffffffffffffffffffffffffffffff1916908160001a9053508080600101915050614440565b82995050505050505050505095945050505050565b60806040519081016040528060008019168152602001600073ffffffffffffffffffffffffffffffffffffffff168152602001600081526020016000151581525090565b61010060405190810160405280614561614690565b815260200161456e6146f0565b815260200161457b614690565b81525090565b6101e060405190810160405280614596614690565b81526020016145a36146f0565b81526020016145b06146f0565b81526020016145bd6146f0565b8152602001606081525090565b604080519081016040528060008152602001600081525090565b81548183558181111561460b5781836000526020600020918201910161460a919061473a565b5b505050565b828054600181600116156101000203166002900490600052602060002090601f016020900481019282601f1061465157805160ff191683800117855561467f565b8280016001018555821561467f579182015b8281111561467e578251825591602001919060010190614663565b5b50905061468c919061473a565b5090565b604080519081016040528060008152602001600081525090565b606060405190810160405280600390602082028038833980820191505090505090565b608060405190810160405280600490602082028038833980820191505090505090565b60806040519081016040528061470461475f565b815260200161471161475f565b81525090565b602060405190810160405280600190602082028038833980820191505090505090565b61475c91905b80821115614758576000816000905550600101614740565b5090565b90565b604080519081016040528060029060208202803883398082019150509050509056fea165627a7a7230582090fa3d8853acaa880ada2490bccdeac7baaaddc4e9ce8b0ce0cb55c91e34e0f80029",
  "source": "pragma solidity >=0.4.21 <0.6.0;\r\n\r\n// define a contract call to the zokrates generated solidity contract <Verifier> or <renamedVerifier>\r\nimport \"./ERC721Mintable.sol\";\r\nimport \"./verifier.sol\";\r\n\r\n\r\n// define another contract named SolnSquareVerifier that inherits from your ERC721Mintable class\r\ncontract SolnSquareVerifier is Verifier, R2Token{\r\n    // define a solutions struct that can hold an index & an address\r\n    struct Solution {\r\n        bytes32 index;\r\n        address addr;\r\n        uint256 tokenId;\r\n        bool exist;\r\n    }\r\n\r\n    // define an array of the above struct\r\n    mapping(uint256 => Solution) solutions;\r\n\r\n    // define a mapping to store unique solutions submitted\r\n    mapping(bytes32 => bool) private uniqueSolutions;\r\n\r\n    // Create an event to emit when a solution is added\r\n    event SolutionAdded(bytes32 key, address addr, uint256 tokenId);\r\n\r\n    //  Create a function to add the solutions to the array and emit the event\r\n    //  This will just limit the ability for a user to mint a token unless they have actually verified that they own that token\r\n    function addSolution(address addr, uint256 tokenId, uint[2] memory a, uint[2][2] memory b, uint[2] memory c, uint[2] memory input) public{\r\n        // Create unique key for the argumqnts\r\n        bytes32 key = keccak256(abi.encodePacked(a, b, c, input));\r\n        // Check whether the solution is already used\r\n        require(!uniqueSolutions[key], \"This solution was already used!\");\r\n        // Verification to check if a token is valid using zokrates (verifier.sol)\r\n        bool isValidProof = verifyTx(a, b, c, input);\r\n        require(isValidProof, \"The provided proof is not valid!\");\r\n        // Add solutions mappings and set uniqueSolutions to be true\r\n        Solution memory solution = Solution(key, addr, tokenId, true);\r\n        solutions[tokenId] = solution;\r\n        uniqueSolutions[key] = true;\r\n        emit SolutionAdded(key, addr, tokenId);\r\n    }\r\n\r\n\r\n    // Create a function to mint new NFT only after the solution has been verified\r\n    //  - make sure the solution is unique (has not been used before)\r\n    //  - make sure you handle metadata as well as tokenSuplly\r\n    function mint(address to, uint256 tokenId) public returns(bool){\r\n        require(solutions[tokenId].exist,\"solution has been used before\");\r\n        return super.mint(to, tokenId);\r\n    }\r\n}\r\n",
  "sourcePath": "C:/Users/Mathijs/Desktop/Capstone/Blockchain-Capstone-Project/eth-contracts/contracts/SolnSquareVerifier.sol",
  "compiler": {
    "name": "solc",
    "version": "0.5.0+commit.1d4f565a.Emscripten.clang"
  },
  "schemaVersion": "3.0.1",
  "updatedAt": "2022-04-03T16:22:26.770Z",
  "devdoc": {
    "methods": {
      "approve(address,uint256)": {
        "details": "Approves another address to transfer the given token ID\r"
      },
      "isApprovedForAll(address,address)": {
        "details": "Tells whether an operator is approved by a given owner\r",
        "params": {
          "operator": "operator address which you want to query the approval of\r",
          "owner": "owner address which you want to query the approval of\r"
        },
        "return": "bool whether the given operator is approved by the given owner\r"
      },
      "setApprovalForAll(address,bool)": {
        "details": "Sets or unsets the approval of a given operator\r An operator is allowed to transfer all tokens of the sender on their behalf\r",
        "params": {
          "approved": "representing the status of the approval to be set\r",
          "to": "operator address to set the approval\r"
        }
      },
      "supportsInterface(bytes4)": {
        "details": "implement supportsInterface(bytes4) using a lookup table\r"
      },
      "tokenByIndex(uint256)": {
        "details": "Gets the token ID at a given index of all the tokens in this contract\r Reverts if the index is greater or equal to the total number of tokens\r",
        "params": {
          "index": "uint256 representing the index to be accessed of the tokens list\r"
        },
        "return": "uint256 token ID at the given index of the tokens list\r"
      },
      "tokenOfOwnerByIndex(address,uint256)": {
        "details": "Gets the token ID at a given index of the tokens list of the requested owner\r",
        "params": {
          "index": "uint256 representing the index to be accessed of the requested tokens list\r",
          "owner": "address owning the tokens list to be accessed\r"
        },
        "return": "uint256 token ID at the given index of the tokens list owned by the requested address\r"
      },
      "totalSupply()": {
        "details": "Gets the total amount of tokens stored by the contract\r",
        "return": "uint256 representing the total amount of tokens\r"
      }
    }
  },
  "userdoc": {
    "methods": {}
  }
}